:020000040800F2
:10000000A81E0020AD3400081D0300081F030008CF
:1000100023030008270300082B030008000000004A
:100020000000000000000000000000002F03000896
:100030003103000800000000330300083503000806
:10004000C7340008C7340008C7340008C7340008A4
:10005000C7340008C7340008C7340008C734000894
:10006000C7340008C7340008C7340008C734000884
:10007000C7340008C7340008C7340008C734000874
:10008000C7340008C7340008C7340008C734000864
:10009000C7340008C7340008C7340008C734000854
:1000A000C7340008C7340008C7340008C734000844
:1000B000C7340008C734000891300008C73400086E
:1000C000C7340008C7340008C7340008C734000824
:1000D000C734000823340008C7340008C7340008B8
:1000E000C7340008C7340008C7340008C734000804
:1000F000C7340008C7340008C7340008C7340008F4
:10010000C7340008C7340008C7340008C7340008E3
:10011000C7340008C7340008C7340008C7340008D3
:10012000C7340008C7340008C7340008C7340008C3
:1001300000F002F800F062F80AA090E8000C824497
:100140008344AAF10107DA4501D100F057F8AFF274
:10015000090EBAE80F0013F0010F18BFFB1A43F0A5
:1001600001031847AC570000CC5700000A444FF079
:10017000000C10F8013B13F0070408BF10F8014B06
:100180001D1108BF10F8015B641E05D010F8016B4B
:10019000641E01F8016BF9D113F0080F1EBF10F8AF
:1001A000014BAD1C0C1B09D16D1E58BF01F801CBD2
:1001B000FAD505E014F8016B01F8016B6D1EF9D555
:1001C0009142D6D37047000000230024002500266A
:1001D000103A28BF78C1FBD8520728BF30C148BFAA
:1001E0000B607047642905F0CB81732905F0EA8222
:1001F000002070471FB51FBD10B510BD05F014FBE2
:100200001146FFF7F7FF00F009F805F032FB03B4E1
:10021000FFF7F2FF03BC03F0A9F800001CB50220B1
:10022000009000BF4FF4A06003F060F94FF4E1309C
:1002300003F0ABF802F0E0FB03F02EF801F0F2FE61
:1002400000F01EFD02F0BAFC02F044FD02F02EFDAB
:1002500002F0ECFB00BF02F0C1FE29A2002108461B
:1002600002F08FFD00F049FE00202849086028496F
:10027000C1F8A401274908602749C1F8A0013DE061
:100280009DF80000042817D006DC012809D00228B8
:100290000AD003281ED10AE06B2816D06C2819D189
:1002A0000EE001F00EFA15E001F045FB12E001F05E
:1002B00001FD022000900DE0684601F068FD09E0B4
:1002C00069466C2002F074FA04E069466B2002F083
:1002D0006FFA00BF00BF002001F0C9FE019002F0DC
:1002E00097FF0446022C03D101A802F0BFF900BF1A
:1002F00000BF69469DF8040001F02CFFC0E7000034
:100300004C6F6164696E672E2E000000A0012242CE
:1003100000002242A401214200002142704700BF98
:10032000FEE700BFFEE700BFFEE700BFFEE7704745
:1003300070477047704700000CB500200190009096
:100340006C48006840F480306A49086000BF694822
:10035000006800F4003000900198401C0190009863
:1003600018B90198B0F5A06FF1D16248006800F4A7
:10037000003010B10120009001E0002000900098B2
:10038000012843D15C48006840F010005A490860D9
:100390000846006820F0030008600846006840F046
:1003A0000200086053484068524948600846406867
:1003B00048600846406840F48060486008464068ED
:1003C00020F47C1048600846406840F4E81048601B
:1003D0000846006840F08070086000BF454800682B
:1003E00000F000700028F9D04248406820F0030077
:1003F000404948600846406840F00200486000BF3D
:100400003C48406800F00C000828F9D10CBD10B53C
:10041000FFF792FF10BD10B53648006840F00100AC
:10042000344908600846406834490840314948600A
:1004300008460068324908402E49086008460068AE
:1004400020F4802008600846406820F4FE004860E0
:100450004FF41F008860FFF7DAFF4FF00060294972
:10046000086010BD10B5002100200022214B5B6800
:1004700003F00C0121B1042906D0082928D107E096
:10048000214B224C236027E01F4B204C236023E0AC
:10049000184B5B6803F47010164B5B6803F48032F2
:1004A000022303EB904022B9194B4343174C2360BE
:1004B0000DE0104B5B6803F4003323B1144B43434E
:1004C000124C236003E0104B4343104C236003E0C5
:1004D0000D4B0E4C236000BF00BF064B5B68C3F39F
:1004E00003130C4CE15C094B1B68CB40074C2360A9
:1004F00010BD000000100240002002400000FFF884
:10050000FFFFF6FE08ED00E000127A000000002078
:1005100000093D000400002070B50446002520E0DD
:1005200004F0800020B18021F74803F05AF903E07D
:100530008021F54803F057F9142002F0C6FE20216F
:10054000F14803F050F9142002F0BFFE2021EE48DC
:1005500003F047F9142002F0B8FE6006040E681C90
:10056000C5B2082DDCDB70BD70B504460D467E209B
:1005700000EA44061021E44803F035F93046FFF75D
:10058000CBFF2846FFF7C8FF1021DF4803F029F909
:1005900070BD70B500251CE06006040E2021DA480D
:1005A00003F021F9142002F090FE4021D64803F018
:1005B000FEF8012801D144F00104142002F085FE68
:1005C0002021D14803F00DF9142002F07EFE681CB2
:1005D000C5B2082DE0DB204670BD70B504467E2014
:1005E00000EA440040F080051021C74803F0FBF802
:1005F0002846FFF791FFFFF7CCFF06461021C248BF
:1006000003F0EFF8304670BD70B505460C4628463D
:10061000FFF7E3FF064646EA04012846FFF7A4FF7A
:1006200070BD70B505460C462846FFF7D6FF064656
:1006300026EA04012846FFF797FF70BD2DE9FE4F1B
:100640000646884691469A46DDF830B00220029070
:100650000020019000900C2E06D00E2E09D1122001
:1006600001901020009005E077200190302000904C
:1006700000E000BF00BF019840F080010220FFF7BA
:1006800073FF80210420FFF7CCFF00210120FFF73A
:100690006BFF80210A20FFF7B7FF002505E018F85F
:1006A00005100920FFF760FF6D1C4D45F7D331465B
:1006B0000120FFF759FF0C2E03D180210D20FFF7F9
:1006C000A3FF4FF47A7500BF0420FFF786FF0446AE
:1006D0006D1E35B104F0010018B9009820400028C3
:1006E000F2D080210D20FFF79CFF95B30620FFF785
:1006F00074FF00F01B0068BB0020029001982040AE
:1007000000F0010008B1012002900C2E24D10A2033
:10071000FFF763FF04460C20FFF75FFF00F00707B9
:100720002FB1601E07EBC000CBF8000002E0E00034
:10073000CBF8000004B90124122C00DD122400259E
:1007400005E00920FFF749FF0AF805006D1CA542E6
:10075000F7D301E00220029080210C20FFF754FF24
:1007600000210120FFF700FF0298BDE8FE8F2DE970
:10077000F04107468846154604210520FFF751FF42
:1007800000210120FFF7F0FE80210A20FFF73CFF47
:10079000002405E0395D0920FFF7E6FE601CC4B2C5
:1007A0004445F7DB03210120FFF7DEFEFF2400BFF5
:1007B0000520FFF712FF0646601EC4B21CB106F00A
:1007C00004000028F4D02220FFF707FF2870212022
:1007D000FFF703FF6870BDE8F081F0B587B005460C
:1007E0000E4630208DF808008DF809500DF10A02F0
:1007F000022102A8FFF7BBFF01A802AB042202A955
:1008000000900C20FFF71AFF074667B9019890285F
:1008100009D1002404E002A8005D3055601CC4B278
:10082000102CF8DB00E00227384607B0F0BD2DE9B8
:10083000F04387B006460F46904699468DF808600B
:100840008DF80970002406E018F8041002AAA01C14
:100850001154601CC4B2062CF6DB002407E019F822
:10086000041002AA04F108001154601CC4B2062C42
:10087000F5DB01A802AB0C2202A900900E20FFF7C5
:10088000DDFE05462DB90820FFF7A7FE00F00800A1
:1008900000B90225284607B0BDE8F08370B588B0DE
:1008A000054693208DF80C0070208DF80D00002077
:1008B0008DF8120000240BE0295D03AAA01C11543E
:1008C0009DF81200295D48408DF81200601CC4B2EA
:1008D000042CF1DB0DF11302072103A8FFF747FFFA
:1008E00008210846FFF79DFE02A803AB092203A9D1
:1008F00000900C20FFF7A2FE06463EB90298182889
:1009000004D1002603E00000000801400226304622
:1009100008B070BD3EB50546002446E0285DC1170D
:1009200000EB117109110DF814101DF814000928BD
:1009300006DD1DF814003730C0B20DF8140005E0D4
:100940001DF814003030C0B20DF81400285DC11736
:1009500000EB11710911A0EB0111C9B2012202EBE8
:1009600044020DF80210012000EB44001DF80000C5
:1009700009280CDD012000EB44001DF80000373091
:10098000C0B2012101EB44010DF801000BE0012090
:1009900000EB44001DF800003030C0B2012101EB33
:1009A00044010DF80100601CC4B2042CB6DB002029
:1009B0008DF808006946FEA004F078FD3EBDF0B554
:1009C00087B00546002708210846FFF72AFE0021C8
:1009D0000D20FFF7C9FD80210E20FFF722FE932096
:1009E0008DF8080020208DF8090001A802AB022232
:1009F00002A900900C20FFF721FE064686B90024CC
:100A000007E002A8005D285502A8005D4740601C71
:100A1000C4B2042CF5DB02A8005DB84200D0022667
:100A200080210E20FFF7F0FD304607B0F0BD70B515
:100A300088B005460C4608210846FFF7F2FD07215D
:100A40000D20FFF791FD03211420FFF7DDFD8DF848
:100A50000C5002A803AB012203A900900C20FFF761
:100A6000EDFD06464EB90298102806D19DF80C00FF
:100A700020709DF80D00607000E00226304608B03E
:100A800070BD10B5CD495220FFF7D1FFCC49087099
:100A90000846007830B902200870CA48FFF78FFF77
:100AA000C7490870C648007850B90220C449087088
:100AB000C448FFF72FFFC348FFF7F0FEC049087096
:100AC000BF48007850B90220BD490870BD4BBE4AEE
:100AD00009216020FFF7ABFEB9490870B8480078DB
:100AE00048B90220B6490870B849B9480078FFF7FC
:100AF00074FEB3490870B248007828B90220B049A2
:100B00000870642002F005FC10BD10B51420FFF73A
:100B100064FD044604F0030018B903211420FFF714
:100B200073FD10BD10B50446412C24D108210846A0
:100B3000FFF777FD3D211120FFF716FD86211720D5
:100B4000FFF712FD7F212620FFF70EFD1E212D202D
:100B5000FFF70AFD00212C20FFF706FD8D212A203A
:100B6000FFF702FD3E212B20FFF7FEFC022002F0E2
:100B7000ACFBFFF7CAFF10BD10B50121954802F08C
:100B800030FE012002F0A1FB0121924802F02BFE71
:100B9000012002F09AFB01218E4802F022FE012082
:100BA00002F093FB0F210120FFF7DEFC00BF0120C4
:100BB000FFF713FD00F010000028F8D1012002F02B
:100BC00084FB3D211120FFF7CFFC1E212D20FFF7D4
:100BD000CBFC00212C20FFF7C7FC8D212A20FFF73A
:100BE000C3FC3E212B20FFF7BFFC40211520FFF75F
:100BF000BBFC10BD08B501210C2003F001F810204A
:100C0000ADF800008DF8030003208DF8020069465E
:100C1000714802F039FD2020ADF8000010208DF859
:100C2000030003208DF8020069466B4802F02CFD9A
:100C30004020ADF8000004208DF8030003208DF85B
:100C400002006946644802F01FFD8020ADF80000F4
:100C500010208DF8030003208DF8020069465E48DD
:100C600002F012FD0120ADF8000010208DF8030005
:100C700003208DF802006946564802F005FD08BDC4
:100C800010B5FFF7B7FF0121524802F0AAFD10216D
:100C9000514802F0A6FDFFF76FFF4120FFF742FF2A
:100CA00010BD10B503211420FFF7BBFC10BDF0B53B
:100CB00087B006460F46A0208DF808008DF8096021
:100CC0000DF10A02022102A8FFF751FD01A802ABB3
:100CD000042202A900900C20FFF7B0FC054645B99C
:100CE0000198042805D19DF8080000F00F000A289B
:100CF00000D0022535BB1022394602A804F07CFC46
:100D0000002404E0385D02A90855601CC4B2102C10
:100D1000F8DB06AA102102A8FFF729FD01A802AB03
:100D2000122202A900900C20FFF788FC054645B965
:100D30000198042805D19DF8080000F00F000A284A
:100D400000D00225284607B0F0BD00B587B050207E
:100D50008DF8080000208DF809000DF10A0202212B
:100D600002A8FFF704FD01A802AB042202A900902B
:100D70000C20FFF763FC002007B000BDF8B5044667
:100D80000D4617461E460020009069465220FFF788
:100D90004EFE6846FFF713FE2046FFF77FFD234611
:100DA0002A4610216020FFF742FDDFB1314615E0F1
:100DB00049443E3E3E25730D0A0000001A00002003
:100DC000560000201C0000203A000020700B00207C
:100DD00057000020000C0140000801401020FFF7E0
:100DE000FCFC03E031461020FFF761FFFFF7ADFF89
:100DF000F8BD38B50122F949F94801F064FE002533
:100E000076E0002437E005EB8500F64901EB400071
:100E100010F814000090BDF800004FF6FF7101EAD1
:100E20000020009005EB8500EE4901EB4000012118
:100E300001EB4401405CBDF80010084480B2009012
:100E400005EB8500E649091D01EB400000EB44027B
:100E5000BDF80010E4A004F029FB05EB8501E04A91
:100E6000121D02EB410101EB44000122694601F031
:100E70002AFE601CC4B2022CC5DB05EB8501D94AF1
:100E800002EB4100FFF746FD00242DE005EB850055
:100E9000D44901EB4000001D10F814000090BDF88B
:100EA00000004FF6FF7101EA0020009005EB85007D
:100EB000CC4901EB4000001D012101EB4401405CE5
:100EC000BDF80010084480B2009005EB8501C44ACB
:100ED000121D02EB4101091D01EB4400012269468C
:100EE00001F0F1FD601CC4B2032CCFDB681CC5B25D
:100EF000BA480088854284DB38BD38B50122B7493D
:100F0000B74801F0CFFDB5480188BCA004F0CEFA87
:100F1000002463E000252CE004EB8401B04A121D9C
:100F200002EB410101EB45000122694601F0BAFDE7
:100F3000BDF80000001204EB8401AA4A02EB410153
:100F400001F81500BDF8000004EB840102EB41013B
:100F5000012202EB4502885404EB8400A04A121DD2
:100F600002EB400000EB4501A7A004F09FFA681CCB
:100F700085B2022DD0DB04EB84019A4A02EB4100DA
:100F8000FFF7C8FC002525E004EB8401944A121DFC
:100F900002EB4101091D01EB45000122694601F008
:100FA00081FDBDF80000011204EB84008D4A02EBC4
:100FB0004000001D00F81510BDF80000C1B204EBA0
:100FC000840002EB4000001D012202EB4502815427
:100FD000681C85B2032DD7DB601C84B27F48008873
:100FE000844297DB01228A498A4801F05BFD8848E8
:100FF000018889A004F05AFA00242FE08549091DD0
:1010000001EB84000122694601F04CFDBDF80000AF
:101010000012854901F82400BDF8000001EB8401AD
:1010200048707C49091D01EB8401881C0122694636
:1010300001F038FDBDF8000000127B4901EB84018E
:101040008870BDF80000784901EB8401C8707649CA
:1010500001EB8400FFF75EFC601C84B26C480088E2
:101060008442CBDB38BD38B50446002000906F4881
:1010700000780090BDF800004FF6FF7101EA0020F3
:1010800000906A484078BDF80010084480B2009093
:10109000BDF8001066A004F009FA5D4909885D4AB0
:1010A000121D02EB81000122694601F00CFD5F4830
:1010B00080780090BDF800004FF6FF7101EA002033
:1010C00000905A48C078BDF80010084480B20090E3
:1010D0004F4909884F4A121D02EB8101881C0122E9
:1010E000694601F0F0FC514800784F49484A12889F
:1010F00001F822004D4841784B48454A128800EBE0
:1011000082004170494880784749414A128801EB82
:10111000820188704548C07843493D4A128801EBF6
:101120008201C8703A480088401C39490880012271
:10113000384801F0C8FC38BD1CB5044642F2FE1028
:101140000190022201A9264801F0ACFCBDF8041070
:1011500037A004F0ABF9012201A92148001D01F0DC
:10116000A1FCBDF8041032A004F0A0F9BDF8040001
:1011700000128DF80000BDF80400C0B28DF8010027
:10118000012201A91648801D01F08CFCBDF8041055
:1011900027A004F08BF9BDF8040000128DF80200BE
:1011A000BDF80400C0B28DF803006846FFF7B2FB3B
:1011B0001CBD10B50346002200BF40E01E48805C05
:1011C0009C5CA04200D139E0002103E0585C1A4C3D
:1011D0006054491C0429F9DB002010BD16000020D2
:1011E00000100308981300202074656D70203D20C6
:1011F0002564206172723D25640D0A004E554D3DF7
:1012000025640D0A000000002025640D0A0000007E
:1012100018000020A42703084E554D5F524F4F542D
:101220003D25640D0A000000800B00201C000020FA
:101230006B3D25640D0A000058000020521C042A52
:10124000BCDB012010BD10B50346002200BF10E03A
:10125000F848805C9C5CA04200D109E0002103E0DA
:10126000585CF44C6054491C0429F9DB002010BD83
:10127000521C042AECDB0120F9E710B503460022DA
:1012800000BF10E0EC48805C9C5CA04200D109E00B
:10129000002103E0585CE84C6054491C0429F9DB48
:1012A000002010BD521C042AECDB0120F9E710B528
:1012B0000346002200BF10E0E048805C9C5CA04236
:1012C00000D109E0002103E0585CDC4C6054491C6B
:1012D0000429F9DB002010BD521C042AECDB01209C
:1012E000F9E710B50346002200BF10E0D448805C47
:1012F0009C5CA04200D109E0002103E0585CD04C86
:101300006054491C0429F9DB002010BD521C042A3A
:10131000ECDB0120F9E770B505460824002434E031
:1013200004EB8400C74911F81000C74909788842C6
:1013300029D104EB8400C34901EB40004078C24945
:10134000497888421FD104EB8400BE4901EB40007C
:101350008078BD498978884215D104EB8400B94969
:1013600001EB4000C078B849C97888420BD1B7A0DA
:1013700004F09CF801F09AFCB6A20121002001F0D3
:1013800000FD012070BD601CC4B2B44800888442D6
:10139000C6DB0020F6E770B505460824002435E0DA
:1013A000AF4901EB8400FFF7B5FAAD4810F824000F
:1013B000A5490978884227D1A94800EB84004078E4
:1013C000A149497888421FD1A54800EB8400807864
:1013D0009D498978884217D1A14800EB8400C078E4
:1013E0009949C97888420FD19EA004F05FF801F0B6
:1013F0005DFC98A20121002001F0C3FC4FF47A703B
:1014000001F087FF012070BD601CC4B297480088BE
:101410008442C5DB0020F6E770B5024600230020B9
:101420008E4C2488641C8D4D2C80012A0FD100BF66
:101430000AE00C5C894D2D8805EB8505814E06EB95
:1014400045052C54441CA0B20428F2DB11E0022A0A
:101450000FD100200BE00D5C804C248804EB840449
:10146000784E06EB4404241D2554441CA0B20628E3
:10147000F1DB70BD2DE9F84F80468A4693461D4644
:101480000A9E00240027A146B8F1010F10D1287848
:101490000B2801D128700DE1287806F800A02878E3
:1014A000401C287032460321002001F06AFC01E153
:1014B000B8F1000F10D120212878401E315428782F
:1014C00008B9012028702878401E28703246032170
:1014D000002001F056FCEDE0B8F1020FDBD1002452
:1014E00029E04FF0000900271AE016F817003038FD
:1014F000012101EB4701715C303901EB810100EB07
:10150000410104EB84004F4A02EB4000001DC05D26
:10151000814203D109F1010000F0FF09781CC7B234
:10152000062FE2DBB9F1050F03D151A003F0BEFF96
:1015300005E0601CC4B2494800888442D1DB00BF8A
:10154000B9F1050F64D0002417E016F81400303804
:10155000012101EB4401715C303901EB810100EBA9
:101560004100C1B23D48008800EB8000354A02EBE3
:101570004000001D0155601CC4B2062CE5DB0024B0
:101580000BE03148005D3549098801EB81012D4AA6
:1015900002EB41010855601CC4B2042CF1DB2A485F
:1015A000C0780090284883784278017833A003F00F
:1015B0007DFF2A48008800EB8000224901EB4000B3
:1015C000C07800902548008800EB80008C460CEB2A
:1015D000400083782148008800EB80000CEB40003D
:1015E00042781E48008800EB80001CF8101027A0ED
:1015F00003F05CFF19480088401C1849088000244B
:1016000003E020203055601CC4B20B2CF9DB51E004
:1016100023A20521002001F0B4FB4FF47A7001F001
:1016200078FE21A20521002001F0ABFB0020BDE8DF
:10163000F88F00005C0000206000002064000020A3
:1016400068000020981300201C00002045584953D2
:101650005400000045584953542100001600002052
:10166000800B0020457869740000000018000020FD
:1016700053616D652049440D0A0000000D0A256480
:101680002025642025642025640D0A0069643D2519
:10169000642025642025642025640D0A00000000D4
:1016A00049442065786974002020202020202020D3
:1016B000200000002978FEA003F0F8FE0120BDE81C
:1016C000F88F30B585B00125FBA207CA02AB07C36E
:1016D00000200190FB48007801286FD1FFF7D1F975
:1016E000F948FFF7FEFD0028F7D1F748FFF713FE92
:1016F0000028F2D1F5480088B0F57A7F5EDCF24828
:10170000007800285AD0F04840780028FAD0EE48F7
:1017100080780028F6D0EC48C0780028F2D001F09C
:10172000C5FAEBA20021084601F02BFBEBA2012138
:10173000002001F026FB9FE001F06AFD0446522CD8
:1017400073D00EDC382C67D006DC102C5BD0182C44
:1017500047D0302C26D13BE0422C71D04A2CF9D115
:1017600077E07A2C46D006DC5A2C60D0622C1AD056
:10177000682C17D123E0902C17D0C22C7BD102A863
:101780000090D248008800EB8000D74901EB400070
:10179000021D01AB30210220FFF76CFE10B10025C5
:1017A000FFF727FB67E0002565E002A801AB0022F8
:1017B000302100901046FFF75DFE5CE077E002A864
:1017C00001AB0022302100900120FFF753FE52E0D0
:1017D00002A801AB0022312100900120FFF74AFE50
:1017E00049E002A801AB0022322100900120FFF75E
:1017F00041FE40E002A801AB00223321009001200D
:10180000FFF738FE37E002A801AB00223421009038
:101810000120FFF72FFE2EE002A801AB00223521A8
:1018200000900120FFF726FE25E01BE008E002A85B
:1018300001AB0022362100900120FFF71BFE1AE0C9
:1018400002A801AB0022372100900120FFF712FE11
:1018500011E002A801AB0022382100900120FFF71F
:1018600009FE08E002A801AB002239210090012006
:10187000FFF700FE00BF00BF002D7FF45DAFC22C5C
:101880000AD101F013FA99A003F010FE9CA20121E5
:10189000002001F076FA06E0622C04D19BA201211F
:1018A000002001F06EFA4FF47A7001F032FD05B0BD
:1018B00030BD10B58348007801283BD1FFF7E1F82F
:1018C0008148FFF776FC002834D17F48FFF763FD9D
:1018D00008BB9048008806281DDC7B480078D0B102
:1018E00079484078B8B178488078A0B17648C07817
:1018F00088B17548FFF7B7FB01F0D8F986A003F06F
:10190000D5FD8BA20121002001F03BFA4FF47A7043
:1019100001F0FFFC0EE07F48008806280ADD01F098
:10192000C5F986A20121002001F02BFA4FF47A704C
:1019300001F0EFFC10BD10B50024FFF7A2F86248DB
:10194000FFF781FC002853D000BF4DE004EB84007A
:10195000654911F810005C490978884242D104EBCE
:101960008400614901EB400040785749497888423A
:1019700038D104EB84005C4901EB40008078524987
:10198000897888422ED104EB8400574901EB40004E
:10199000C0784D49C978884224D16BA003F086FDF8
:1019A00001F084F901206C4908606C49C1F8A40178
:1019B0006B49086000F0F2FE4FF47A7001F0A9FC68
:1019C00000F0E2FE4FF47A7001F0A3FC00206249BF
:1019D0000860091D0860624908603B49087048704A
:1019E0008870C870601CC4B2384800888442ADDB7F
:1019F00010BD2DE9F0470746884691461C46002653
:101A00000025012F23D1207804280DD120702F48E4
:101A10000088401F53490978884229DD51480078E1
:101A2000401C5049087023E0217828480088401E57
:101A3000814204D125480078401E207018E02078AB
:101A4000494901F800802078401C207010E07FB9DF
:101A5000207850B90120207042480078002804DD29
:101A600040480078401E3F4908702078401E207092
:101A7000002696E0002586E03A480078304400EBE6
:101A80008000194901EB4000001D405D0A2190FBD8
:101A9000F1F201FB12003030334901F815003148F2
:101AA0000078304400EB80000F4901EB40005DE01E
:101AB0006375723D25640000202020202020202016
:101AC00020200000140000201C0000201600002030
:101AD0004E6577204361726421000000456E746595
:101AE000722049443A00000098130020577269742C
:101AF000652061206E6577206361726400000000DC
:101B00004E65772055736572210000005175636B37
:101B100021000000180000205772697465206120C0
:101B20006E657720726F6F742063617264000000CD
:101B30004E455720524F4F5421000000524F4F54F2
:101B4000204D4158210000004F70656E205468659B
:101B500020446F6F72000000A00122420000224268
:101B6000A40121426C0000206D000020001D405D9A
:101B70000A2190FBF1F03030012101EB4501FE4AD2
:101B80005054681CC5B2062DFFF676AF2020FA49E6
:101B90008872C8720A463146002001F0F2F8701CC3
:101BA000C6B2F6480088864202DA042EFFF662AF1B
:101BB000002529E02078F2490978084400EB8000EC
:101BC000F04901EB4000001D405D0A2190FBF1F25D
:101BD00001FB12003030E84901F815002078E8498F
:101BE0000978084400EB8000E64901EB4000001D45
:101BF000405D0A2190FBF1F03030012101EB4501FD
:101C0000DD4A5054681CC5B2062DD3DB2020DA49CA
:101C100088723C20C872D948008820B12178D64A01
:101C2000002001F0AEF82178D4480388D448027827
:101C3000D5A003F03BFC2078D14909780844C0B214
:101C4000BDE8F08730B50246114629E000200EE0DD
:101C500001EB8103CB4C04EB43031C5C4B1E03EBF9
:101C60008303C84D05EB43031C54431CD8B204281E
:101C7000EEDB002010E001EB8103C24C04EB4303D8
:101C80001B1D1C5C4B1E03EB8303BE4D05EB430386
:101C90001B1D1C54431CD8B20628ECDB4B1CD9B2CC
:101CA000B64B1B889942D1DBB44B1B885B1EB34CEF
:101CB000238030BDFEB50125002001900290002652
:101CC0000090B8480078012859D1AC480088002815
:101CD0004CD000F0EBFF6B46002211460320FFF7CB
:101CE00088FE064626E001F093FA0446622C0ED0E8
:101CF000A82C0ED0C22C02D0E02C1AD111E0711CFD
:101D0000C8B2FFF79FFFFFF774F8002511E0002528
:101D10000FE06B46002211460120FFF76AFE0646DF
:101D200007E06B46002211461046FFF762FE0646AA
:101D300000BF00BF002DD6D100F0B8FFC22C09D1E2
:101D400099A20221002001F01CF84FF47A7001F0F2
:101D5000E0FA14E0622C12D195A20221002001F0D9
:101D600010F84FF47A7001F0D4FA08E093A202213F
:101D7000002001F006F84FF47A7001F0CAFAFEBDB7
:101D800000209049087048708870C87070472DE92D
:101D9000F84305460024A046012600275A208DF866
:101DA00000004B208DF801002F208DF80200152037
:101DB0008DF80300FEF765FE7A480078002864D1AC
:101DC0008048FFF774FA00285ED09DF800007D4936
:101DD0000978884220D19DF801007A4949788842E3
:101DE0001AD19DF8020077498978884214D19DF86C
:101DF00003007449C97888420ED1012069490870EE
:101E000000F054FF70A003F051FB74A201210020E8
:101E100000F0B7FF02202870002431E0724810F86B
:101E2000240068490978884228D16F4800EB840073
:101E3000407864494978884220D16B4800EB84009F
:101E4000807860498978884218D1674800EB84001F
:101E5000C0785C49C978884210D101205149087086
:101E600000F024FF58A003F021FB5CA20121002018
:101E700000F087FFFFF784FF02202870601CC4B2C7
:101E80005A4800888442C9DB73E06EE001F0C0F973
:101E900007465A2F47D014DC302F3AD008DC022FE7
:101EA00028D0102F3BD0182F35D0222F43D126E039
:101EB000382F36D0422F38D04A2F38D0522F3AD12F
:101EC00037E0A22F12D008DC622F11D0682F1ED06D
:101ED0007A2F22D0902F2ED117E0A82F13D0C22F07
:101EE0000CD0E02F0DD0E22F25D105E0002622E016
:101EF000002620E000261EE000261CE01BE0002655
:101F000019E0002617E0002615E0002613E0002661
:101F100011E000260FE000260DE000260BE0002671
:101F200009E0002607E0002605E0002603E0002681
:101F300001E0002600BF00BF00F0B8FE2CA2002187
:101F4000084600F01EFF2DA20221002000F019FF1C
:101F50002CA20321002000F014FFAFF6F8020421A8
:101F6000002000F00EFFFFF7A4FC002E8ED102200F
:101F70002870BDE8F88300006D00002016000020E6
:101F80006C000020981300206375723D25642C209E
:101F9000626173653D25642C6E756D3D25640D0A87
:101FA0002C0000001400002020202044656C21003B
:101FB0002020205175636B2100000000204E554CFD
:101FC0004C2100001C000020537563636573736629
:101FD000756C206C6F67696E0D0A00004765742090
:101FE000524F4F5421000000800B002018000020A9
:101FF00041444420524F4F5400000000416E79206C
:10200000200000004B6579000548007808B90020E1
:1020100070470120FCE7002001490870704700006C
:102020001400002008B50121382001F0E9FD4FF42B
:10203000E050ADF8000048208DF803006946FB48E9
:1020400001F022FB0420ADF8000048208DF80300C9
:102050006946F74801F018FB0820ADF80000482059
:102060008DF803006946F34801F00EFB08BD10B57A
:10207000044614B10120F0490870F048006868B1C6
:10208000EE48001D006848B1EC480830006828B1EF
:10209000EB48006810B1EB48006800BB0A2001F073
:1020A00038F90020E4490870E448006808B90120C4
:1020B00010BDE248001D006808B90220F8E7DF48BB
:1020C0000830006808B90320F2E7DD48006808B965
:1020D0000520EDE7DB480068C8B90620E8E7D748E7
:1020E0000068012813D1D548001D006801280ED1D1
:1020F000D24808300068012809D1D1480068012879
:1021000005D1D0480068012801D1CB4908700020D2
:10211000CEE710B500240020FFF7A9FF0446022CEB
:1021200004D10120C8490870FFF72AFE012C04D110
:102130000220C5490870FFF723FEC0480830006838
:10214000A04204D10320C0490870FFF719FEBE4821
:10215000007810BD38B504460D46022C01D0662C1F
:1021600030D10120B94908700020B9490870FFF743
:102170004BFF88B101202870B6A003F097F900F05A
:1021800095FDB7A20221002000F0FBFDB7A20321BC
:10219000002000F0F6FD0EE0B7A003F087F900F094
:1021A00085FDAFA20221002000F0EBFDB7A20321C4
:1021B000002000F0E6FDB8A20021084600F0E1FD95
:1021C000FFF7DEFD012C01D0652C15D10020A049C0
:1021D0000870B4A003F06AF900F068FDB4A202210F
:1021E000002000F0CEFDACA20021084600F0C9FDA1
:1021F00002202870FFF7C4FD032C01D0672C32D1D8
:1022000092488078032802D102209049487000202B
:102210008F490870FFF7F8FE60B1A8A003F046F9F7
:1022200000F044FDA8A20221002000F0AAFD032036
:1022300028700EE000F03AFDA3A20221002000F079
:10224000A0FDA4A003F032F9A5A20321002000F014
:1022500098FD91A20021084600F093FDC82001F0EE
:1022600058F8FFF78DFD052C01D0682C19D177485F
:102270000078012802D104207449C87000207449F4
:10228000087000F013FD84A20021084600F079FDDB
:1022900096A20221002000F074FD04202870FFF7B0
:1022A0006FFD632C01D0692C2FD100206849087084
:1022B000FFF7AAFEA0B100F0F9FC90A202210020D5
:1022C00000F05FFD90A21721002000F05AFD0122CE
:1022D0005F49904800F0F7FB00208F49088010E02C
:1022E00000F0E4FC8DA20121002000F04AFD8EA246
:1022F0000221002000F045FD8EA20321002000F005
:1023000040FD4FF4FA6001F004F86D2C2AD1002052
:102310004F490870FFF778FE78B100F0C7FC88A23B
:102320000221002000F02DFD01224949884800F0DB
:10233000CAFB00208749088010E000F0B7FC77A2B4
:102340000121002000F01DFD77A20221002000F0F5
:1023500018FD78A20321002000F013FD4FF4FA606D
:1023600000F0D7FF622C01D06A2C14D1002038492C
:10237000087000F09BFCFFF747FE28B176A202210F
:10238000002000F0FEFC04E076A20221002000F014
:10239000F8FCFFF740FE6B2C01D16B2028706C2CF1
:1023A00001D16C2028702A480078401C2849087008
:1023B000962000F0AEFF26480078052834D16C48FE
:1023C000006808B9012000E000206949086000F0B9
:1023D0006DFC68483023542200210090084600F02C
:1023E000B0FDFFF711FE38B163480C231A460021F7
:1023F0000090084600F0A5FD2878022808D15F4823
:102400000C231A4600210090242000F09AFDC4E01D
:102410002878042809D15A480C231A460021009034
:10242000242000F08EFDB8E0BAE0ABE000100140DF
:1024300000140140000C01400B080020280122423A
:10244000088122420C8121420C0800200E08002045
:102450000D080020414444206D6F64650D0A0000A2
:1024600020416464204D6F64652000002041444495
:102470002055534552532000596F752061726520D5
:102480006E6F7420726F6F74210D0A00204C696D9D
:10249000697465642100000020474455542020459C
:1024A0004C430000576F726B206D6F64650D0A001E
:1024B00020576F726B204D6F6465200044656C205F
:1024C0004D6F64650D0A00002044454C204D6F643B
:1024D000652000004E6F7420726F6F740D0A00004B
:1024E000204C696D69746564A3A1200020526F6F50
:1024F00074204C6F67696E200000000020416C6CF6
:1025000020557365727320002020436C65616E2036
:1025100000000000001003081600002020596F750D
:10252000277265206E6F7400202020526F6F742018
:102530000000000020204C696D6974656420000073
:1025400020436C65616E20526F6F742000000000A4
:10255000A42703081800002020204C6F676F7574B3
:102560002120000020204E6F20526F6F7421000048
:10257000A001214213060020B3050020FB05002026
:10258000E30500202878012807D1EB480C231A46E0
:1025900000210090242000F0D4FC0020E7490870BE
:1025A00038BD2DE9FF4780460C4691461D46B8F1DF
:1025B000010F0DD12078032806D12878052816DAD6
:1025C0002878401C287012E02078401C20700EE013
:1025D000B8F1000F0BD1207830B92878002806DD3B
:1025E0002878401E287002E02078401E207000F0FD
:1025F0005DFB00260BE028783044C0EB001000EBB8
:1026000009023146002000F0BCFB701CC6B2042E4B
:10261000F1DB00270AE0207829780844C0EB00109D
:102620004844C05D0DF80700781CC7B20C2FF2DBE0
:102630003C208DF80B0020208DF80C008DF80D004B
:1026400021786A46002000F09CFBBDA204210020F6
:1026500000F097FBBEA20521002000F092FB287835
:1026600021780844C0B204B0BDE8F087F0B5A5B049
:1026700004468822B94903A803F003F8012600277D
:10268000002002900025019001AB03AA02A90220BC
:10269000FFF787FF4BE000F0BBFD0746A82F13D0E4
:1026A00008DC022F20D0222F28D0622F09D0A22FA1
:1026B0003CD133E0C22F1FD0E02F27D0E22F35D1FD
:1026C0000AE00026002531E001AB03AA02A901209F
:1026D000FFF767FF054629E001AB03AA02A9012025
:1026E000FFF75FFF054621E001AB03AA02A9012025
:1026F000FFF757FF054619E0002617E001AB03AAD4
:1027000002A90020FFF74DFF05460FE001AB03AA29
:1027100002A90020FFF745FF054607E001AB03AA29
:1027200002A90020FFF73DFF054600BF00BF002EB5
:10273000B1D129468AA002F0B9FE092D21D2DFE8E5
:1027400005F005080B0E1114171A1D0065202070E6
:1027500017E06620207014E06720207011E06820E8
:1027600020700EE06A2020700BE06D20207008E0E1
:102770006920207005E06C20207002E06B20207042
:1027800000BF00BF25B0F0BD08B577483023542204
:1027900000210090084600F0D4FB08BD08B573483E
:1027A0003023542200210090084600F0CAFB08BDE7
:1027B0002DE9F04188B005460E466DA30FCB04AC61
:1027C0000FC46FA3D3E90020D3E9021301AC0BC4FB
:1027D00000920B2401274FF000086C2D7ED100F0F1
:1027E00065FA81E000F014FD8046B8F1000F00D0DA
:1027F000002767A20021084600F0C3FA6848008855
:10280000642190FBF1F0303004A9085504A8005D64
:10281000302801D120200855614800880A2190FB0A
:10282000F1F090FBF1F201FB12003030C1B204AACA
:10283000601C115404A9085C302802D12021601CBE
:102840001154574800880A2190FBF1F201FB120055
:102850003030C1B204AAA01C11540121002000F0A4
:1028600090FA50480088642190FBF1F03030C0B2FB
:102870000DF804001DF80400302802D120200DF8C6
:102880000400484800880A2190FBF1F090FBF1F227
:1028900001FB12003030C1B2601C0DF800101DF8B1
:1028A0000000302803D12021601C0DF800103D48A5
:1028B00000880A2190FBF1F201FB12003030C1B216
:1028C000A01C0DF800106A460221002000F059FA01
:1028D00035A20321002000F054FA00E00AE036A2FD
:1028E0000421002000F04DFA002F7FF47BAF02207E
:1028F00030701EE06B2D1CD100F0D8F915E000F00F
:1029000087FC8046B8F1000F00D000272EA20021DE
:10291000084600F036FA30A20121002000F031FA1A
:1029200031A20221002000F02CFA002FE7D1022072
:10293000307008B0BDE8F081CB0500200D08002004
:102940005C5C5C5C5C5C5C5C5C5C5C5C5C5C00007F
:10295000202020204D65616E750000008858000819
:1029600025640D0A00000000BB030020C301002005
:1029700055736572204E756D3A202020202000008E
:10298000526F6F74204E756D3A2020202020000079
:102990002020202053797320496E666F00000000CC
:1029A0001600002018000020446174613A32303172
:1029B000392D382D31390000566572736F6E3A56D5
:1029C00020312E300000000020204D616B65722008
:1029D000496E666F202000004D616B65723A4A6156
:1029E0006B6566697368000050683A31353532317D
:1029F000313133363631000008B50121042001F0B1
:102A0000FFF84FF44070ADF8000010208DF803007F
:102A100003208DF802006946114800F035FE0020C1
:102A2000104908601049C1F8A40108BD08B501218A
:102A3000102001F0E5F84FF44070ADF800001020D0
:102A40008DF8030003208DF802006946074800F066
:102A50001BFE0020064908600649C1F8A40108BD14
:102A600000080140A0012142000021420010014065
:102A7000A0012242000022420146088870472DE949
:102A8000F04105460E461746002407E036F81410BC
:102A9000284602F092FBAD1C601C84B2BC42F5DB00
:102AA000BDE8F08130B503460C461546002207E02C
:102AB0001846FFF7E1FF24F812009B1C501C82B25D
:102AC000AA42F5DB30BD2DE9F05F80468A46174605
:102AD000B8F1006F02D33748804501D3BDE8F09FBD
:102AE00002F023FAA8F1006B4FEADB25CBF349098A
:102AF000C9F58064A74200DC3C464DE04FF0006120
:102B000001EBC5204A142C49FFF7CCFF00260BE04F
:102B100009EB0600284931F810004FF6FF71884292
:102B200000D003E0701C86B2A642F1DB00BFA642D3
:102B30001BDA4FF0006101EBC52002F03BFA0026E2
:102B400008E03AF8160006EB09011B4A22F81100CA
:102B5000701C86B2A642F4DB4FF0006101EBC52089
:102B60004A141549FFF78BFF04E0224651464046C0
:102B7000FFF785FFA74200D10FE06D1C4FF0000961
:102B80000AEB440AA044381B87B2B7F5806F02DD18
:102B90004FF4806400E03C46B0E700BF02F0D1F99A
:102BA00000BF9BE713B50446012201A92046FFF7A9
:102BB0008AFF1CBD00000808980B002008B5012101
:102BC000182001F01DF84FF4E040ADF8000010208F
:102BD0008DF8030003208DF802006946F74800F0E5
:102BE00053FDC020ADF800006946F54800F04CFDEB
:102BF0004FF48041F14800F0F4FD4FF48051EF486C
:102C000000F0EFFD4FF40051EC4800F0EAFD4021E8
:102C1000EB4800F0E6FD8021E94800F0E2FD08BD48
:102C2000002000E0401CB0F57A7FFBD37047002005
:102C300000E0401C40F274418842FAD3704700B56E
:102C40000246002300BF02E0FFF7F1FF5B1C934246
:102C5000FAD300BD10B50A460023DA4C23601AB936
:102C6000D84C0834236003E00123D64C0834236099
:102C7000002115E000F080031BB10123D24C23603A
:102C800002E00023D04C23600023CF4C241D23609E
:102C90004306180E0123CD4CC4F89C314B1CD9B20D
:102CA0000829E7DB0123C74C236010BD10B50021C4
:102CB0000C20FFF7CFFF00218020FFF7CBFF00247F
:102CC00004E001210020FFF7C5FF641CB4F5FC7F80
:102CD000F7D310BD00B50020BA49091D0860FFF701
:102CE0009FFF0120BA49C1F8B4010020B54908602E
:102CF000FFF796FF0120B649C1F8B001FFF790FF3A
:102D000000212120FFF7A6FF0021C820FFF7A2FF26
:102D100000210620FFF79EFF00211320FFF79AFFF6
:102D200000212020FFF796FFFFF7C0FF00210C20B5
:102D3000FFF790FF0020A349086000BD30B50446AE
:102D40000D4645F040000021FFF784FF44F080006D
:102D50000021FFF77FFF30BD30B50446A4F120000D
:102D6000C4B200250AE004EB44019A4A02EB410197
:102D7000485D0121FFF76EFF681CC5B2062DF2DB2E
:102D800030BD70B505460E46144631462846FFF75D
:102D9000D5FF03E02078FFF7DFFF641C20780028D0
:102DA000F8D170BD2DE9F04F074688461446994684
:102DB000DDE909BA41463846FFF7C0FF00252FE09C
:102DC000002620E0A64211D135B908F10100C1B2B8
:102DD0003846FFF7B3FF09E008F10102D1B204EB76
:102DE0000A0202FB0572D0B2FFF7A8FF0BEB050148
:102DF00001EB4101784A02EBC101885D0121FFF737
:102E000029FF701CC6B2B6EB440FDBDB681CC5B2F1
:102E100004EB0A0101FB0571C8B24146FFF78EFFC2
:102E20004D45CDDBBDE8F08F2DE9F04F8346894657
:102E300092461E46099CE11704EB5171C910A4EBA0
:102E4000C10131B92046E11704EB5171C1F3C70844
:102E500007E02046E11704EB5171C910491C01F04D
:102E6000FF08002514E049465846FFF767FF002792
:102E700007E005FB06711AF801000121FFF7EAFEE1
:102E80007F1CB742F5D309F1010000F0FF096D1C6A
:102E90004545E8D3BDE8F08F00224A4B1A60012275
:102EA0004B4BC3F8B821002115E000F080021AB1A5
:102EB0000122454B1A6002E00022434B1A600022B7
:102EC000414B1B1D1A604206100E01223F4BC3F8F6
:102ED0009C214A1CD1B20829E7DB0122394B1A6038
:102EE00070470022374B1A60394BC3F8B8210021D4
:102EF00015E000F080021AB10122334B1A6002E0A3
:102F00000022314B1A6000222F4B1B1D1A60420613
:102F1000100E01222D4BC3F89C214A1CD1B2082966
:102F2000E7DB0122274B1A60704730B504460D4697
:102F300045F04000FFF7D5FF44F08000FFF7D1FFD8
:102F400030BD2DE9F04F83460F4690461C46DDF814
:102F50002490302C00DD3024E11704EB5171C910AE
:102F6000A4EBC10139B12046E11704EB5171C9103E
:102F7000491CCEB205E02046E11704EB5171C1F3C4
:102F8000C706002515E07819C1B25846FFF7CDFFF6
:102F90004FF0000A09E099F80000FFF77DFF09F102
:102FA00001090AF1010000F0FF0AC245F3DB681CC9
:102FB000C5B2B542E7DBBDE8F08F0000000C014070
:102FC00000100140B08121429801224200002242BB
:102FD000008021421A0900201208002000B589B0A3
:102FE0000121082000F00CFE0121042000F015FE54
:102FF0004FF40070ADF8200028208DF82300032046
:103000008DF8220008A99D4800F03EFB4FF40071A6
:103010009A4800F0E6FB42F21070ADF81400472029
:10302000ADF810000020ADF81600ADF8120004A9AC
:10303000934800F01DFF0C20ADF804000020ADF80F
:1030400006000120ADF808000020ADF80A000320BA
:10305000ADF80C0001A98A4801F09DF901218848CA
:1030600001F062FA1E208DF81C0001208DF81D0071
:1030700003208DF81E0001208DF81F0007A800F026
:103080003AFA012211217E4801F069FA09B000BD27
:1030900010B501217A4801F010FDF8B179480078A7
:1030A00000F08000D0B17748007820F0100075491A
:1030B00008700846007800F00F0020B90846007834
:1030C00040F0400008706F48007800F00F000E28B4
:1030D00005DA6C480078401C6A4908700AE06948C3
:1030E000007820F08000674908700846007800F0FA
:1030F000F00008701021624801F0DFFC002810D0B9
:103100006148006870B102215D4801F005FC0021B2
:103110005B4801F09DFC5B48007840F01000594985
:10312000087070E0564801F0B2FC58490880002150
:10313000534801F0F1FB5348007800F010000028DC
:103140005BD05048007800F08000E8B34F4800881A
:10315000B0F5967F0DDD4D480088B0F5487F08DA60
:103160004B48006840004A4908600846006808600B
:1031700043E046480088B0F5AF6F0FDD4348008854
:10318000B0F5E16F0ADA4248006840004049086043
:103190000846006840F0010008602EE03B480088C7
:1031A00040F69801884228DD3848008840F62821FA
:1031B000884222DA37480078401C36490870314886
:1031C000007800F0F00000E002E02E49087014E002
:1031D0002E48008841F2680188420EDD2B480088A5
:1031E00041F25C21884208DA2648007840F08000ED
:1031F000244908700020274908702248007820F0F0
:1032000010002049087011211D4801F067FC10BD15
:1032100010B500201B4B1B7803F040036BB31C4B15
:103220001B68190E1A4B1B68C3F30742D343DBB26A
:103230008B420BD151B9164B1B88C3F30721144B9A
:103240001A78D343DBB28B4200D1084600BF28B1C5
:103250000C4B1B7803F08003002BF8D120B1094BF5
:103260001B7803F0800343B9064B1B7823F040031F
:10327000044C23700023074C237010BD000C014048
:1032800000080040440B002024812142460B00200E
:10329000480B00204C0B002010B56FF0040000F02C
:1032A00074F92E4800682E49B0FBF1F02D490870E2
:1032B0000846007800EB4001C1EBC0104FF6FF71EB
:1032C00001EAC0002849088010BD0146254A12784D
:1032D0004A434FF0E0235A6100229A611A4612696C
:1032E00042F001021A6100BF4FF0E022106900F0C5
:1032F00001021AB100F48032002AF5D04FF0E0222A
:10330000126922F001024FF0E0231A6100229A6153
:1033100070470146144A12884A434FF0E0235A612D
:1033200000229A611A46126942F001021A6100BF36
:103330004FF0E022106900F001021AB100F480326F
:10334000002AF5D04FF0E022126922F001024FF07E
:10335000E0231A6100229A617047000000000020FB
:1033600000127A004E0B0020500B0020014600BFD7
:10337000704700BF494A128802F04002002AF9D083
:10338000C2B2464B1B1D1A80704710B586B004466A
:10339000012144F2040000F033FC4FF40070ADF85A
:1033A000140003208DF8160018208DF8170005A9C9
:1033B0003B4800F069F94FF48060ADF81400042038
:1033C0008DF8170005A9364800F05EF925208DF824
:1033D000000003208DF801008DF8020001208DF817
:1033E0000300684600F087F801940020ADF808005B
:1033F000ADF80A00ADF80C00ADF810000C20ADF8E7
:103400000E0001A9254801F0B0FB012240F2255130
:10341000224801F042FC0121204801F032FC06B0B4
:1034200010BD10B540F225511C4801F01BFD10B332
:103430001A4801F097FCC4B21A48008800F4004012
:10344000C8B91848008800F4804060B10A2C03D045
:1034500000201449088020E01248008840F4004011
:103460001049088019E00D2C06D10E48008840F460
:1034700080400C49088010E00A480088C0F30D0025
:1034800009490C5407480088401C06490880084632
:103490000088C72801DD0020088010BD00380140E9
:1034A00000080140580B0020801700200948804781
:1034B00009480047FEE7FEE7FEE7FEE7FEE7FEE716
:1034C000FEE7FEE7FEE7FEE704480549054A064B2E
:1034D000704700001704000831010008A8180020F8
:1034E000A81E0020A81A0020A81A00203149014374
:1034F000314A1160704770B5002100230F22C47853
:1035000004B32D4C246804F4E064C4F5E064210A9B
:10351000C1F10403CA40447804FA03F184781440EA
:1035200021430901254C0678A155047804F01F05B4
:103530000124AC4005786D11AD0005F1E025C5F81A
:10354000004109E0047804F01F050124AC401C4D43
:103550000678761145F8264070BD1A4A0A400243A3
:10356000154B1B1F1A60704739B1134A121D1268A0
:103570000243114B1B1D1A6006E00F4A121D126810
:1035800082430D4B1B1D1A607047042808D14FF071
:10359000E021096941F004014FF0E022116107E0E8
:1035A0004FF0E021096921F004014FF0E0221161A0
:1035B000704700000000FA050CED00E000E400E0B8
:1035C00080E100E080FFFF1F10B50446CC48844234
:1035D00008D10121042000F02DFB0021042000F07F
:1035E00029FB46E0C748844208D10121082000F0A9
:1035F00021FB0021082000F01DFB3AE0C248844274
:1036000008D10121102000F015FB0021102000F04E
:1036100011FB2EE0BD48844208D10121202000F09A
:1036200009FB0021202000F005FB22E0B84884427D
:1036300008D10121402000F0FDFA0021402000F0D7
:10364000F9FA16E0B348844208D10121802000F045
:10365000F1FA0021802000F0EDFA0AE0AE48844241
:1036600007D10121801500F0E5FA0021A01500F036
:10367000E1FA10BD10B50121084600F0DBFA002187
:10368000012000F0D7FA10BD2DE9F04102460025D7
:103690000026002000230024002791F803C00CF02E
:1036A0000F0591F803C00CF0100CBCF1000F03D013
:1036B00091F802C04CEA050591F800C0BCF1000F7A
:1036C00031D0146800202BE04FF0010C0CFA00F30D
:1036D000B1F800C00CEA03069E4220D183004FF0EF
:1036E0000F0C0CFA03F7BC4305FA03FC4CEA040484
:1036F00091F803C0BCF1280F06D14FF0010C0CFA71
:1037000000FCC2F814C00AE091F803C0BCF1480FF5
:1037100005D14FF0010C0CFA00FCC2F810C0401C9F
:103720000828D1D31460B1F800C0BCF1FF0F34DD1C
:10373000546800202EE000F1080C4FF0010808FA50
:103740000CF3B1F800C00CEA03069E4221D18300BD
:103750004FF00F0C0CFA03F7BC4305FA03FC4CEADC
:10376000040491F803C0BCF1280F05D100F1080C46
:1037700008FA0CF8C2F8148091F803C0BCF1480FA5
:1037800007D100F1080C4FF0010808FA0CF8C2F854
:103790001080401C0828CED35460BDE8F0814FF65D
:1037A000FF710180022181700421C17070470246BF
:1037B000002093680B400BB1012000E0002070470F
:1037C0000146886880B2704702460020D3680B40EB
:1037D0000BB1012000E0002070470146C86880B2AC
:1037E000704701617047416170470AB1016100E0B3
:1037F00041617047C16070474FF480320A43826173
:103800008161826182698269704702460020434B70
:1038100018684FF68073184040EA021008433F4B87
:10382000186070473E49C8617047F0B50A460023EA
:1038300000240021002500F00046B6F1004F02D11F
:10384000364EF16901E0354E7168C0F3034583B22D
:1038500000F44016B6F5401F08D121F070612F4EDC
:10386000766826F070662D4F7E6012E000F48016B8
:10387000B6F5801F06D1032606FA05F4A14341F0F0
:10388000706106E0460D360103FA06F6B14341F0D9
:10389000706122B1460D360103FA06F6314300F09D
:1038A0000046B6F1004F02D11C4EF16101E01B4E03
:1038B0007160F0BD30B500228B071C0F0F2303FA97
:1038C00004F2164B08338C1053F824309343134CF6
:1038D00008348D1044F8253023468C1053F82430DA
:1038E0008C07240F00FA04F423430C4C08348D1089
:1038F00044F8253030BD0A49DC31086070470000CB
:1039000000080140000C014000100140001401407B
:1039100000180140001C014000200140000001404F
:1039200000002042DF48006840F00100DD490860E7
:1039300008464068DC490840DA49486008460068A3
:10394000DA490840D74908600846006820F480201A
:1039500008600846406820F4FE0048604FF41F00ED
:1039600088607047CF49096821F48031CD4A1160E1
:103970001146096821F480211160B0F5803F03D021
:10398000B0F5802F0ED106E0C649096841F48031B8
:10399000C44A116007E0C349096841F4A021C14A43
:1039A000116000E000BF00BF704710B50146002263
:1039B000002300204A11012A02D1BA4C236806E0F4
:1039C000022A02D1B74C236A01E0B64C636A01F0C7
:1039D0001F02012494401C400CB1012000E0002093
:1039E00010BD38B5002000900024002500BF312014
:1039F000FFF7DBFF05460098401C00900098B0F5EB
:103A0000A06F01D0002DF2D03120FFF7CEFF08B11A
:103A1000012400E00024204638BD01460020A14AD0
:103A2000106820F0F80040EAC10010607047A0491B
:103A300008607047024600209A4B586820F47C10BA
:103A400042EA01031843974B58607047984908664B
:103A5000704701460020934A506820F00300084355
:103A6000506070478F48406800F00C007047014676
:103A700000208C4A506820F0F000084350607047E6
:103A800001460020874A506820F4E06008435060F7
:103A9000704701460020834A506820F4605040EA95
:103AA000C1005060704729B17E4A527A02437D4B73
:103AB0005A7204E07B4A527A82437A4B5A727047B8
:103AC0007B49D8310860704701460020754A50682C
:103AD00020F440400843506070470021714A203272
:103AE0001170704A82F82010012802D004280AD1EF
:103AF00004E001216B4A2032117005E00521694A7A
:103B00002032117000E000BF00BF704769490860B3
:103B100070476449096A0143624A11627047654906
:103B200044390860704730B500210022002400238A
:103B30005C4D6D6805F00C0121B1042905D0082900
:103B400023D105E05C4D056022E05B4D05601FE080
:103B5000544D6D6805F47012524D6D6805F4803453
:103B6000022505EB92421CB9544D554305600BE00C
:103B70004C4D6D6805F400351DB1504D5543056041
:103B800002E04D4D5543056002E04B4D056000BF1E
:103B900000BF444D6D6805F0F0010909484D6B5CAC
:103BA0000568DD4045603F4D6D6805F4E061090A38
:103BB000434D6B5C4568DD4085603A4D6D6805F4AA
:103BC0006051C90A3E4D6B5C4568DD40C560354DAE
:103BD0006D6805F44041890B3A4D6B5CC568B5FBD7
:103BE000F3F5056130BD29B12E4A526902432D4BD0
:103BF0005A6104E02B4A526982432A4B5A6170474A
:103C000029B1284A92690243264B9A6104E0254A69
:103C100092698243234B9A61704729B1214AD26944
:103C20000243204BDA6104E01E4AD26982431D4BF5
:103C3000DA61704729B11B4AD2680243194BDA6036
:103C400004E0184AD2688243164BDA60704729B103
:103C5000144A12690243134B1A6104E0114A1269B3
:103C60008243104B1A61704712494039086070470F
:103C70000F49C86470470B49C87170470948406ACA
:103C800040F0807007494862704701460020054AAD
:103C900092680A400AB1012000E000207047014903
:103CA00088727047001002400000FFF8FFFFF6FE28
:103CB000000042428004424200127A0000093D00A6
:103CC0005A0B00206A0B002010B50446FE488442BF
:103CD00008D10121C014FFF7ADFF0021E014FFF768
:103CE000A9FFC4E0B4F1804F08D101210846FFF7D5
:103CF000AEFF00210120FFF7AAFFB8E0F34884429D
:103D000008D101210220FFF7A2FF00210220FFF7C6
:103D10009EFFACE0EE48844208D101210420FFF769
:103D200096FF00210420FFF792FFA0E0E9488442BB
:103D300008D101210820FFF78AFF00210820FFF7A2
:103D400086FF94E0E448844208D101211020FFF767
:103D50007EFF00211020FFF77AFF88E0DF488442D1
:103D600008D101212020FFF772FF00212020FFF75A
:103D70006EFF7CE0DA48844208D101214014FFF74D
:103D800059FF00216014FFF755FF70E0D5488442C9
:103D900009D10121C804FFF74DFF00214FF4002095
:103DA000FFF748FF63E0D048844209D101210805AC
:103DB000FFF740FF00214FF48010FFF73BFF56E074
:103DC000CA48844209D101214805FFF733FF002189
:103DD0004FF40010FFF72EFF49E0C548844208D198
:103DE00001214020FFF733FF00214020FFF72FFF84
:103DF0003DE0C048844208D101218020FFF727FF21
:103E000000218020FFF723FF31E0BB48844208D126
:103E100001218015FFF71BFF0021A015FFF717FFF9
:103E200025E0B648844209D101210804FFF702FFCA
:103E300000214FF48030FFF7FDFE18E0B0488442C7
:103E400009D101214804FFF7F5FE00214FF40030AD
:103E5000FFF7F0FE0BE0AB48844208D10121880453
:103E6000FFF7E8FE00214FF48020FFF7E3FE10BDCE
:103E700000220288944B98420ED0994B98420BD066
:103E8000B0F1804F08D0914B984205D0904B9842AA
:103E900002D0904B984204D14FF68F731A404B8852
:103EA0001A438D4B984207D08C4B984204D04FF662
:103EB000FF431A40CB881A4302808B8883850B8886
:103EC0000385814B98420BD0854B984208D08B4B91
:103ED000984205D08A4B984202D08A4B984201D131
:103EE0000B7A038601238382704770B50024002279
:103EF0000023058C4FF6FE7635400584028C8388BE
:103F0000048B4FF68F752C40B51E2C400D882C432A
:103F1000751E2A400D892A434D882A436A4DA842BE
:103F20000BD06F4DA84208D0744DA84205D0744DF7
:103F3000A84202D0734DA84213D14FF6F7752A401C
:103F40004D892A434FF6FB752A408D882A434FF648
:103F5000FF652B404FF6FF552B408D892B43CD89B4
:103F60002B4383800483CD888586028470BD70B521
:103F7000002400220023058C4FF6EF76354005849F
:103F8000028C8388048B48F6FF752C404FF6FF4562
:103F90002C400D884FF6FF7606EA05252C434FF698
:103FA000DF752A400D8906EA05152A434D8806EA81
:103FB00005152A43444DA84202D0494DA8421DD1BF
:103FC0004FF67F752A404D894FF6FF7606EA0515B4
:103FD0002A434FF6BF752A408D8806EA05152A4305
:103FE0004FF6FF352B404FF2FF752B408D8906EAC7
:103FF00085052B43CD8906EA85052B438380048301
:10400000CD880587028470BD70B50024002200238E
:10401000058C4FF6FF6635400584028C8388848BBF
:104020004FF68F752C404FF6FC752C400D882C43B5
:104030004FF6FF552A400D894FF6FF7606EA052513
:104040002A434D8806EA05252A431F4DA84202D07F
:10405000234DA8421DD14FF2FF752A404D894FF6DE
:10406000FF7606EA05252A434FF6FF352A408D885C
:1040700006EA05252A434EF6FF752B404DF6FF75DF
:104080002B408D8906EA05152B43CD8906EA0515D7
:104090002B4383808483CD888587028470BD70B56F
:1040A000002200230024058C4EF6FF76354005845F
:1040B000038C8488828B48F6FF752A404FF6FF45B3
:1040C0002A400D8820E00000002C01400004004040
:1040D00000080040000C00400010004000140040A8
:1040E00000340140004C01400050014000540140A8
:1040F00000180040001C004000200040004001402B
:1041000000440140004801404FF6FF7606EA0525CD
:104110002A434DF6FF752B400D8906EA05352B43E2
:104120004D8806EA05352B43FA4DA84202D0FA4DD8
:10413000A84208D14BF6FF752C408D894FF6FF76CB
:1041400006EA85152C4384808283CD88A0F84050F0
:10415000038470BD828B4FF2FF331A408283828BBF
:104160004FF6FF7303EA01231A4382837047F0B5C9
:104170000C461546002200210026078C4EF6FF7CD7
:1041800007EA0C070784828B018C4FF6FF7707EA5A
:10419000043640F6FF473A404FF6FF7707EA052717
:1041A0003A434FF6FF7707EA03373A43D94FB8420D
:1041B0000ED0D94FB8420BD0B0F1804F08D0D74FB6
:1041C000B84205D0D64FB84202D0D64FB84206D139
:1041D0004DF6FF77394046F48057394305E047F6FE
:1041E000FF57394044F48057394382830184F0BD3E
:1041F000828B4FF6F3731A408283828B0A43828349
:104200007047F0B50C461546002200210026078CA9
:104210004FF6FF6C07EA0C070784828B018C4FF680
:10422000FF7707EA04264FF60C773A404FF6FF7700
:1042300007EA03172F433A43B64FB8420ED0B64FA2
:10424000B8420BD0B0F1804F08D0B44FB84205D07F
:10425000B34FB84202D0B34FB84206D14FF6FF5722
:10426000394046F48077394305E04FF2FF57394033
:1042700044F48077394382830184F0BD028B4FF28E
:10428000FF331A400283028B4FF6FF7303EA0123C8
:104290001A4302837047F0B50C46154600220021F0
:1042A0000026078C4FF6EF7C07EA0C070784028B89
:1042B000018C4FF6FF7707EA041640F6FF473A40B5
:1042C0004FF6FF7707EA03373A434FF6FF7707EADF
:1042D00005273A438F4FB8420ED08F4FB8420BD0CC
:1042E000B0F1804F08D08D4FB84205D08C4FB84206
:1042F00002D08C4FB84206D14FF6DF77394046F0F6
:104300001007394305E04FF65F77394044F0100756
:10431000394302830184F0BD028B4FF6F3731A40D8
:104320000283028B0A4302837047F0B50C461546A0
:1043300000220021068C4FF6FE773E400684028B59
:10434000018C4FF60C7632407E1C06EA03162E4393
:104350003243704EB0420ED06F4EB0420BD0B0F12F
:10436000804F08D06D4EB04205D06D4EB04202D0A5
:104370006C4EB04206D14FF6FD76314044F0010656
:10438000314305E04FF6F576314044F00106314304
:1043900002830184F0BD70B505460C465D48854238
:1043A0000ED05D4885420BD0B5F1804F08D05B48F8
:1043B000854205D05A48854202D05A48854200D1EC
:1043C00000E000BF208850B92389A2886188284670
:1043D000FFF7ABFFE1882846FFF79EFF25E0208826
:1043E00004280AD12389A28861882846FFF753FF51
:1043F000E1882846FFF742FF17E0208808280AD105
:104400002389A28861882846FFF7FBFEE1882846B9
:10441000FFF7EEFE09E02389A28861882846FFF7AE
:10442000A6FEE1882846FFF795FE70BD2DE9F04114
:1044300005460C4600260127608808B9022600E0E0
:104440000026A088012801D1022700E0012720884A
:10445000A0B92389A28861882846FFF766FFE18812
:104460002846FFF759FF23893A4631462846FFF789
:1044700012FFE1882846FFF701FF13E02389A28895
:1044800061882846FFF707FFE1882846FFF7F6FE18
:1044900023893A4631462846FFF747FFE1882846F8
:1044A000FFF73AFFBDE8F0810A884B881A438B88F2
:1044B0001A43CB881A430B891A434B891A438B89B9
:1044C0001A43A0F8442070474FF6FF718180002105
:1044D0000180C180418001727047002101804180CC
:1044E0008180C180018141818181C181704700212A
:1044F00001804180012181800021C18001817047BC
:104500000021018041808180C180018141818181C0
:1045100070470000002C01400034014000040040BE
:1045200000080040000C004021B1028842F0010266
:10453000028004E002884FF6FE731A400280704742
:1045400031B1B0F8442042F40042A0F8442005E024
:10455000B0F84420C2F30E02A0F8442070471AB10C
:1045600083890B43838102E083898B438381704776
:104570008182704741EA0203A0F8483070471AB1BF
:1045800083890B43838102E083898B438381704756
:1045900001894FF6F8721140018170470A460021E7
:1045A00001894FF68F73194011430181704730B56F
:1045B00004460D4629462046FFF7F0FF208940F0CB
:1045C0000700208130BD2DE9F04104460D46164616
:1045D0001F46602D06D13B46012231462046FFF79B
:1045E0005AFE05E03B46012231462046FFF79DFE7C
:1045F00029462046FFF7D2FF208940F0070020819E
:10460000BDE8F08130B50C4600210189C9B24FF6F2
:10461000FF7505EA0325154325432943018130BD74
:104620002DE9F04105460E461746984600244346BC
:104630003A4631462846FFF7E5FF2C894FF6F870D9
:10464000044044F007044FF68F70044044F07004B7
:104650002C81BDE8F081F0B504460D4616461F4694
:104660003B46324629462046FFF7CCFF208940F4DE
:1046700080402081F0BD0185828270470A4600217A
:1046800001884FF68F731940114301807047F0B5D0
:104690000C4615461E460021002200230189028B8C
:1046A000038C4FF6F877394021434FF6FC473A40E8
:1046B00040F201173A434FF6DD773B404FF6FF7764
:1046C00007EA06172F433B43018102830384F0BDB1
:1046D0000A460021018B4FF68F7319401143018365
:1046E00070470A460021018B48F6FF7319404FF6C8
:1046F000FF7303EA02231943018370470A4600212E
:10470000818B4FF68F7319401143818370470A469E
:104710000021818B48F6FF7319404FF6FF7303EABF
:10472000022319438183704721B1028842F080023D
:10473000028004E002884FF67F731A4002807047BF
:1047400021B1828842F00402828004E082884FF620
:10475000FB731A408280704721B1828842F00802C0
:10476000828004E082884FF6F7731A408280704797
:1047700021B1828842F00102828004E082884FF6F3
:10478000FE731A40828070470A460021018B4FF663
:10479000F77319401143018370470A460021018BCA
:1047A0004FF2FF7319404FF6FF7303EA02231943D8
:1047B000018370470A460021818B4FF6F773194039
:1047C0001143818370470A460021818B4FF2FF73AA
:1047D00019404FF6FF7303EA0223194381837047A0
:1047E0000A460021018B4FF6FB73194011430183E8
:1047F00070470A460021018B4FF6FF3319404FF6F0
:10480000FF7303EA02231943018370470A4600211C
:10481000818B4FF6FB7319401143818370470A4621
:104820000021818B4FF6FF3319404FF6FF7303EAE7
:1048300002231943818370470A460021018B4FF6FA
:104840007F7319401143018370470A460021018B91
:10485000C1F30E014FF6FF7303EA022319430183EC
:1048600070470A460021818B4FF67F731940114330
:10487000818370470A460021818BC1F30E014FF6F8
:10488000FF7303EA02231943818370470A4600211C
:10489000018C4FF6FD7319401143018470470A469D
:1048A0000021018C4FF6F7731940114301847047C2
:1048B0000A460021018C4FF6DF7319404FF6FF7353
:1048C00003EA02131943018470470A460021018C50
:1048D0004FF67F7319404FF6FF7303EA0213194333
:1048E000018470470A460021018C4FF6FF5319409E
:1048F0004FF6FF7303EA02231943018470470A4607
:104900000021018C4FF2FF7319404FF6FF7303EA49
:1049100002231943018470470A460021018C4DF699
:10492000FF7319404FF6FF7303EA02331943018402
:10493000704730B5002301248C40A3B2048C9C4303
:104940000484048C02FA01F5ADB22C43048430BD1A
:1049500030B5002304248C40A3B2048C9C4304840F
:10496000048C02FA01F5ADB22C43048430BD70B55D
:104970000346002000241846183001258D40ACB2B3
:104980001D8CA5431D8409B1082909D100EB6100E4
:10499000056825F0700505600568154305600EE0A3
:1049A0000D1FC5F34E052844056825F4E045056054
:1049B00005684FF6FF7606EA02263543056070BDAE
:1049C00021B1028842F00202028004E002884FF620
:1049D000FD731A400280704721B1028842F0040240
:1049E000028004E002884FF6FB731A400280704791
:1049F00021B1828842F08002828004E082884FF6F2
:104A00007F731A408280704702884FF6F7731A400E
:104A1000028002880A430280704782884FF68F73B3
:104A20001A40828082880A438280704702894FF64A
:104A3000F8731A40028102890A4302817047028991
:104A40004FF67F731A40028102890A430281704740
:104A500081847047818570478186704701877047E0
:104A600081877047A0F84010704702884FF6FF43D7
:104A70001A40028002880A43028070470146888EED
:104A800070470146088F70470146888F704701467E
:104A9000B1F8400070470146888C70470146088D88
:104AA000704702460020138A0B400BB1012000E042
:104AB00000207047CA430282704730B5024600208A
:104AC00000230024158A05EA0103958905EA0104FB
:104AD00013B10CB1012000E0002030BDCA430282B6
:104AE0007047000010B50446FB48844209D10121FB
:104AF0008803FFF79FF800214FF48040FFF79AF8F2
:104B000032E0F648844209D101214804FFF79FF8BA
:104B100000214FF40030FFF79AF825E0F048844276
:104B200009D101218804FFF792F800214FF4802079
:104B3000FFF78DF818E0EB48844209D10121C80441
:104B4000FFF785F800214FF40020FFF780F80BE015
:104B5000E548844208D101210805FFF778F80021D3
:104B60004FF48010FFF773F810BD2DE9F04786B0C1
:104B700005460E460024A24600BFA1460027B08984
:104B800000B100BF2F462C8A4CF6FF700440F0881D
:104B900004432C82AC894EF6F3100440B08831896E
:104BA0000843718908430443AC81AC8A4FF6FF4047
:104BB0000440B0890443AC8201A8FEF7B4FFC648A4
:104BC000874202D1DDF810A001E0DDF80CA0A88931
:104BD00000F4004040B10AEBCA0000EB0A10316853
:104BE0004900B0FBF1F807E00AEBCA0000EB0A103D
:104BF00031688900B0FBF1F86420B8FBF0F00401E3
:104C00002009642101FB1089A88900F4004040B10B
:104C1000322000EBC900B0FBF1F000F007000443C4
:104C200008E0322000EB09106421B0FBF1F000F045
:104C30000F0004432C8106B0BDE8F0874FF41651F5
:104C4000016000218180C18001810C21418100210E
:104C50008181704710B502460020108A4FF2FF0391
:104C600018400B884C8823438C882343CC882343EB
:104C70001843108210BD0021018041808180C180D5
:104C8000704721B1828942F40052828104E0828916
:104C90004DF6FF731A4082817047F0B50346002439
:104CA00000260025002040F66A17B94200D100BF57
:104CB0001846C1F3421401F01F06012707FA06F552
:104CC000012C01D10C3004E0022C01D1103000E0A5
:104CD00014301AB107682F43076002E00768AF433A
:104CE0000760F0BD1AB1838A0B43838202E0838A96
:104CF0008B4383827047028A4FF6F0731A40028218
:104D0000028A0A430282704782894FF2FF731A4077
:104D1000828182890A438281704721B1828942F06F
:104D20000202828104E082894FF6FD731A4082817B
:104D30007047028A4FF6DF731A400282028A0A43E2
:104D40000282704721B1028A42F48042028204E06A
:104D5000028A4BF6FF731A4002827047C1F30802C1
:104D60008280704701468888C0F3080070478189B7
:104D700041F0010181817047028BD2B20283028B24
:104D800042EA012202837047028B02F47F420283CF
:104D9000028B0A430283704721B1828A42F02002CB
:104DA000828204E0828A4FF6DF731A408282704763
:104DB00021B1828A42F01002828204E0828A4FF698
:104DC000EF731A408282704721B1828A42F0080252
:104DD000828204E0828A4FF6F7731A40828270471B
:104DE00021B1828942F40042828103E08289C2F3C8
:104DF0000E028281704721B1828A42F4006282826F
:104E000004E0828A4FF2FF731A4082827047828ADE
:104E10004FF6FB731A408282828A0A43828270476D
:104E200021B1828A42F00202828204E0828A4FF635
:104E3000FD731A408282704702460020B1F5007F60
:104E400000D100BF13880B400BB1012000E000200F
:104E5000704701F40072B2F5007F00D100BFCA4371
:104E60000280704770B50246002400230025002010
:104E700040F66A16B14200D100BFC1F3421501F0FD
:104E80001F03012606FA03F3012D02D19689334050
:104E900006E0022D02D1168A334001E0968A3340A3
:104EA0000C12012606FA04F41688344013B10CB132
:104EB000012000E0002070BD10B50022002340F664
:104EC0006A14A14200D100BF0A1201249440A3B287
:104ED000DC43048010BD0000003801400044004065
:104EE00000480040004C00400050004001460020B7
:104EF000FE4A106800F03800084310607047FB4914
:104F0000096821F00801F94A116011460968014356
:104F100011607047F549096821F01001F34A1160EA
:104F200011460968014311607047F148EF49486034
:104F3000F04848607047EE48EC494860ED484860EA
:104F40007047EA48006940F08000E849086170470E
:104F5000E648006940F08000E44908617047042099
:104F6000E249C96801F0010109B101200EE0DF4901
:104F7000C96801F0040109B1022007E0DB49C968F2
:104F800001F0100109B1032000E00420704700B5D2
:104F900002460423FFF7E3FF034603E0FFF7DFFFCA
:104FA0000346521E012B01D1002AF7D102B9052375
:104FB000184600BD30B5044604254FF43020FFF7F5
:104FC000E6FF0546042D17D1C848006940F00200ED
:104FD000C649086108464461006940F04000086124
:104FE0004FF43020FFF7D3FF0546C048006941F673
:104FF000FD710840BD490861284630BD10B5042444
:105000004FF43020FFF7C3FF0446042C16D1B748F5
:10501000006940F00400B54908610846006940F0A5
:10502000400008614FF43020FFF7B1FF0446AF485D
:10503000006941F6FB710840AC490861204610BD8B
:1050400000B502460423FFF78AFF034603E0FFF79B
:1050500086FF0346521E012B01D1002AF7D102B967
:105060000523184600BD10B504244FF43020FFF787
:10507000E7FF0446042C16D19C48006940F0040068
:105080009A4908610846006940F0400008614FF401
:105090003020FFF7D5FF04469448006941F6FB71C4
:1050A000084092490861204610BD00208F49C96917
:1050B00001F0020109B1012000E00020704730B585
:1050C000A5250424FFF7F1FF00B100254FF430209F
:1050D000FFF75DFF0446042C3AD185488349886078
:1050E000844888600846006940F02000086108464E
:1050F000006940F0400008614FF43020FFF747FF9F
:105100000446042C1BD17948006941F6DF71084040
:10511000764908610846006940F010000861764849
:105120000580E002FFF733FF0446052C10D06F48DE
:10513000006941F6EF7108406C49086108E0052CF0
:1051400006D06A48006941F6EF7108406749086176
:10515000204630BD78B506460C4604250020009058
:10516000E802FFF714FF0546042D24D15F480069CB
:1051700040F001005D4908613480E802FFF707FF55
:105180000546042D10D1B01C0090200C0099088019
:10519000E802FFF7FCFE05465448006941F6FE713F
:1051A00008405249086106E05048006941F6FE7126
:1051B00008404E490861284678BD70B504460D4642
:1051C0000426F002FFF7E3FE0646042E11D14748FD
:1051D000006940F00100454908612580F002FFF7B1
:1051E000D6FE06464148006941F6FE7108403F4937
:1051F0000861304670BD70B505460E460424E002D5
:10520000FFF7C5FE0446042C17D13948374988609A
:10521000384888600846006940F0100008612E8018
:10522000E002FFF7B4FE0446052C06D02F480069C3
:1052300041F6EF7108402D490861204670BD2DE907
:10524000F04304464FF6FF763746B046B146042594
:10525000E443E6B2C4F30727C4F307484FEA1469EE
:10526000E802FFF794FE0546042D49D120481F4966
:105270008860204888600846006940F01000086196
:10528000FF2E06D01C4808300680E802FFF77FFE9C
:105290000546042D08D1FF2F06D017480A30078095
:1052A000E802FFF774FE0546042D0AD1B8F1FF0F9E
:1052B00007D011480C30A0F80080E802FFF767FE25
:1052C0000546042D0AD1B9F1FF0F07D00A480E3068
:1052D000A0F80090E802FFF75AFE0546052D0FD012
:1052E0000248006941F6EF71084007E000200240E3
:1052F00023016745AB89EFCD00F8FF1F66490861C0
:105300002846BDE8F08330B5054604244FF430202C
:10531000FFF73DFE0446042C41D160485E49886099
:105320005F4888600846006940F020000861084630
:10533000006940F0400008614FF43020FFF727FE7D
:105340000446042C22D15448006941F6DF7108401C
:10535000514908610846006940F0100008611DB11C
:1053600000205049088002E0A5204E4908804FF4F3
:105370003020FFF70CFE0446052C10D0464800698B
:1053800041F6EF7108404449086108E0052C06D059
:105390004148006941F6DF7108403F4908612046F5
:1053A00030BDF0B505460E46174604243B483A4941
:1053B00088603B488860E002FFF7E9FD0446042C62
:1053C00019D13548006940F010003349086147F0B1
:1053D000F800304328433349891C0880E002FFF776
:1053E000D6FD0446052C06D02B48006941F6EF7126
:1053F0000840294908612046F0BD2748C069800857
:1054000070472548006A704700202349096801F069
:10541000200109B1012000E00020704729B11E4A97
:10542000126902431C4B1A6104E01B4A1269824351
:10543000194B1A61704701460020012908D1164A0C
:10544000D26902F001020AB1012008E0002006E062
:10545000114AD2680A400AB1012000E000207047DA
:105460000D49C860704704200B49C96801F001016B
:1054700009B101200EE00849C96801F0040109B131
:10548000022007E00449C96801F0100109B10320B6
:1054900000E004207047000000200240230167451F
:1054A000AB89EFCD00F8FF1F704700000FB404492F
:1054B00010B503AA029800F089F910BC5DF814FB3E
:1054C000540B00202DE9F0410E46044600202062D6
:1054D0002046E168884730B3252805D0D4E901216A
:1054E0009047206A401CF2E7E16820460027884781
:1054F000050018D0A5F14100192802D820354FF435
:1055000000673246294620462760FAF76BFE40B115
:10551000012804D0F61D26F007060836D8E7361D08
:10552000D6E72846DAE7206ABDE8F08170B50C4678
:105530000546012A05D02878800600D5EA690023AF
:1055400002E0012305E05B1C934202D2E05C0028EC
:10555000F9D1A869E618C01AA861286A1844286217
:105560002846AFF3008004E0D5E9012114F8010BCF
:105570009047B442F8D32846AFF3008070BD0000D6
:105580002DE9F0410646002410687529314616A51C
:1055900010D0AFF30080002802DA404213A507E0E4
:1055A00031688A0701D512A502E0490704D511A583
:1055B000012401E0AFF3008000210A2206F1240754
:1055C00009E0B0FBF2FCB0FBF2F302FB1C00303050
:1055D00078541846491C0028F3D123462A46304601
:1055E000BDE8F04100F083B8000000002D0000008D
:1055F0002B00000020000000032A40F2308010F051
:10560000030C00F0158011F8013BBCF1020F62445D
:1056100098BF11F801CB00F8013B38BF11F8013BEE
:10562000A2F1040298BF00F801CB38BF00F8013B9B
:1056300011F0030300F02580083AC0F0088051F80B
:10564000043B083A51F804CBA0E80810F5E7121D16
:105650005CBF51F8043B40F8043BAFF30080D20735
:1056600024BF11F8013B11F801CB48BF11F8012B01
:1056700024BF00F8013B00F801CB48BF00F8012B24
:10568000704710B5203AC0F00B80B1E81850203AAE
:10569000A0E81850B1E81850A0E81850BFF4F5AFD2
:1056A0005FEA027C24BFB1E81850A0E8185044BF5C
:1056B00018C918C0BDE810405FEA827C24BF51F8C9
:1056C000043B40F8043B08BF7047D20728BF31F8BD
:1056D000023B48BF11F8012B28BF20F8023B48BF0E
:1056E00000F8012B704770477047704770472DE9ED
:1056F000F0470D4699469246044600F12408016899
:10570000880604D5E06921F01001216000E0012045
:10571000A84201DD471B00E00027A1697A1902EBCE
:105720000900081AA0612078C00602D42046AFF311
:105730000080002608E0D4E901211AF8060090470D
:10574000206A401C761C20624E45F4DB2078C0069F
:105750000AD52046AFF3008006E0D4E901213020CD
:105760009047206A401C2062381EA7F10107F4DC34
:1057700007E0D4E9012118F805009047206A401C91
:105780002062281EA5F10105F3DC2046AFF300805E
:105790002078000602D50220BDE8F0870120FBE753
:1057A00010B5436913B1AFF3008001E0FFF7BEFE0F
:1057B000012010BD127800F124010A7000224A7005
:1057C0000122EDE711684FF0FF32E9E7074B70B5B2
:1057D0000D467B4400F011F80446284600F020F8FE
:1057E00010B14FF0FF3070BD204670BD9DDBFFFF54
:1057F00001694A1C02610878704700B58FB0CDE995
:1058000001310021059105497944CDE90310114684
:105810006846FFF757FE0FB000BD0000E5FFFFFF31
:10582000007B00F080007047754600F029F8AE4616
:1058300005006946534620F00700854618B020B59C
:10584000FDF742FEBDE820404FF000064FF0000794
:105850004FF000084FF0000B21F00701AC46ACE818
:10586000C009ACE8C009ACE8C009ACE8C0098D4685
:1058700070470446AFF300802046FAF7C8FC0000EA
:105880000048704748180020576F726B204D6F64B6
:10589000652020000000004164642020557365727B
:1058A00020200000000044656C20205573657220A4
:1058B0002000000000526F6F74204C6F67696E20EB
:1058C00000000000526F6F7420204F75742020007C
:1058D000000000526F6F7420696E697420202000F0
:1058E0000000496E69742053797374656D2020003F
:1058F0000053797374656D20496E666F2020000037
:105900004D616B65722020496E666F20200000009B
:105910003059000800000020700B00006C010008E6
:10592000005F0008700B002038130000C801000859
:105930001184A24A0400091201020304060708099F
:105940003816C43A68D97B5690ABD0791F39B0B1BC
:105950008FA5059E0A88FF0114AA07026309BC4DA2
:10596000FF07802916110215088A2001914812802C
:1059700080C0E0F0F0F8F8F87C3C3C1E1E0E0F07EB
:105980000118080F0E1E1E3C3C7C18A7F0F0E0C06A
:105990008080580880E0F07C7E3F1F2942031AF087
:1059A0002413E0C01BC0E04A52F03B070F011F1F49
:1059B0003F7EF8F0E03D9DF0FCFFFF441117E0F85A
:1059C000FCFE1E0E2A01AC19041201B70E1EFEFCCD
:1059D000F8E01808C0FFFFFCF00F3F1D1942195DE9
:1059E00061100B03878F9F9E9C9C9F9F9F19043F74
:1059F0009C9C9E9F8F878339551CE0F0F830233F95
:105A00000F1E01070F1F7F0C49386C0C0C0D0199FC
:105A10000A59681AF032A51F0F0301181901010372
:105A2000070E0C1C1C18383838787878F8F8FCFC0D
:105A3000FEFEFCFCF80C1912AF181C0C0C0E073003
:105A400001270D16C0C0C0400169E0013019E3090B
:105A5000181C094D540C4FE0E0E0540C4F030303B5
:105A600054093AFC0D1607070704010223070B101F
:105A7000C040010B12C0C016591C0922E80919FCCC
:105A80004660F090B0E03D202020E0090924FC129F
:105A9000FF0C11F0F0F054381303FEF0E0380F0E55
:105AA0000A86C6465E786060607F7FA70925540C31
:105AB000120F0F0FA81008FF02070FFEFEC00B1FEA
:105AC00001FED80927FC1A1FBE1503013F380B2E13
:105AD000EFF8540B100704012B0707163B070601CC
